:020000040800F2
:1000000008B500F03DF8034A136843F0010313609C
:1000100008BD00BF00100240FFF7F2BF08B5FFF7B0
:10002000FBFF002008BD0000684620F007018D4658
:1000300001B50A4B0A4A0B498B4207D30A4B0B4ABC
:100040000021934207D3FFF7E9FFFEE752F8040BC4
:1000500043F8040BF0E743F8041BF2E7000000202C
:10006000080100080000002000000020000000201F
:10007000024B1868C0F34000704700BF00100240F8
:1000800007B51F4A136843F001031360FFF7F0FF41
:100090000128FBD1136823F0F80343F080031360B9
:1000A0004FF0FF3301930199164B0B400193019BD5
:1000B0005360536813F00C0FFBD113680193019B3D
:1000C00023F0847323F480330193019B1360106841
:1000D00010F00070FBD1136823F4802313604FF4F9
:1000E0001F035060D06210630193019B9360906086
:1000F000536A43F08073536203B05DF804FB00BFA2
:08010000001002400CC0FFF8E2
:0400000508000029C6
:00000001FF
