:020000040800F2
:1000000007B500F089F9294B1A6842F001021A601D
:100010001A6822F480321A605A6A42F001025A6267
:100020001A689107FCD55A6822F0F0025A605A68A3
:1000300022F4E06242F480625A605A6822F460520C
:100040005A605A6822F480325A605A6822F4741254
:1000500042F420125A60DA6A22F00F02DA621A6859
:1000600042F080721A601A689201FCD55A6822F038
:10007000030242F002025A605A6802F00C02082A97
:10008000FAD15A6942F4FC025A615A6902F4FC023C
:100090000192019A9A6942F480429A619B6903F441
:1000A00080430093009B03B05DF804FB0010024006
:1000B00000231B60FFDE30B5C36891FAA1F4B4FAE7
:1000C00084F491FAA1F10325B1FA81F1640005FAF3
:1000D00004F4490023EA040302FA01F11943C16060
:1000E00030BD30B5036891FAA1F4B4FA84F491FA02
:1000F000A1F10325B1FA81F1640005FA04F4490085
:1001000023EA040302FA01F11943016030BD30B55E
:10011000436A090A91FAA1F4B4FA84F491FAA1F1BC
:100120000F25B1FA81F1A40005FA04F4890023EA4D
:10013000040302FA01F11943416230BD10B582682F
:1001400091FAA1F3B3FA83F391FAA1F10324B1FA7E
:1001500081F15B0004FA03F3490022EA030304FA85
:1001600001F11943816010BD70B500F00F03012447
:100170000F280546164604FA03F413D91F2814D98C
:100180002F2814D93F2814D94F2814D95A28394870
:1001900088BF002007295ED8DFE801F03527185E08
:1001A0000F213D2D4FF09040F4E73348F2E73348FC
:1001B000F0E73348EEE73348ECE703222146FFF748
:1001C00090FF2146BDE87040FFF7B8BF00222146EE
:1001D000FFF787FF00222146FFF76DFFF1E70022BE
:1001E0002146FFF77EFF0222F5E700222146FFF7B6
:1001F00078FF0122EFE701222146FFF772FF4368F3
:1002000023434360DDE701222146FFF76AFF43688D
:1002100023EA0403F5E702222146FFF762FF436861
:10022000234343602146FFF789FF2B071CD4026A52
:1002300094FAA4F3B3FA83F394FAA4F40F21B4FA72
:1002400084F49B0001FA03F3A40022EA030306FAF4
:1002500004F21A43026270BD02222146FFF741FFF9
:10026000436823EA0403DCE732462146BDE87040D8
:10027000FFF74DBF00140048000400480008004884
:10028000000C00480010004808B507220321242074
:10029000FFF76AFFBDE80840072201212420FFF78D
:1002A00063BF08B5FFF7ACFEFFF7EEFFBDE80840FF
:1002B000FFF7FEBE08B5FFF7F4FF002008BD000001
:1002C000684620F007018D4601B50A4B0A4A0B49E2
:1002D0008B4207D30A4B0B4A0021934207D3FFF707
:1002E000E9FFFEE752F8040B43F8040BF0E743F88C
:1002F000041BF2E700000020A0030008000000201B
:100300000000002000000020024B1868C0F34000ED
:10031000704700BF0010024007B51F4A136843F042
:1003200001031360FFF7F0FF0128FBD1136823F0EE
:10033000F80343F0800313604FF0FF3301930199FA
:10034000164B0B400193019B5360536813F00C0F45
:10035000FBD113680193019B23F0847323F4803352
:100360000193019B1360106810F00070FBD11368BB
:1003700023F4802313604FF41F035060D062106396
:100380000193019B93609060536A43F080735362C2
:1003900003B05DF804FB00BF001002400CC0FFF882
:04000005080002C12C
:00000001FF
