:020000040800F2
:1000000000A0002055020008590200085B02000809
:100010007102000873020008890200080000000055
:100020000000000000000000000000009F02000827
:10003000A102000800000000A3020008B9070008A0
:10004000B9020008B9020008B9020008B9020008A4
:10005000B9020008B9020008B9020008B902000894
:10006000B9020008B9020008B9020008B902000884
:10007000B9020008B9020008B9020008B902000874
:10008000B9020008B9020008B9020008B902000864
:10009000B9020008B9020008B9020008B902000854
:1000A000B9020008B9020008B9020008B902000844
:1000B000B9020008B9020008B9020008B902000834
:1000C000B9020008B9020008B9020008B902000824
:1000D000B9020008B9020008B9020008B902000814
:1000E000B9020008B9020008B9020008B902000804
:1000F000B9020008B9020008B9020008B9020008F4
:10010000000000000000000000000000B90200082C
:10011000B9020008B9020008B9020008B9020008D3
:10012000B9020008B9020008B9020008B9020008C3
:10013000B9020008B9020008000000000000000039
:10014000B9020008B9020008B90200080000000066
:10015000000000000000000000000000000000009F
:100160000000000000000000B9020008B902000809
:10017000B9020008000000000000000000000000BC
:1001800000000000B902000807B500F031FA274B63
:100190002748834226D3274A274900208A422CD366
:1001A00000F08CFA254D264C01A9684600F018FA9B
:1001B000641BA4100026B44228DC224D224C641B90
:1001C000A4100026B44226DCDDE9000100F0ACFA00
:1001D0001E4D1F4C641B0646A410002C20DC30462C
:1001E00000F0FAF9D3E900129C680C33891A9442A2
:1001F000CFD9555815600432F9E752F8083B52F848
:10020000044C9C42CAD943F8040BFAE755F8043B66
:1002100098470136CFE755F8043B98470136D1E7B8
:10022000013C55F824309847D7E700BFBC020008CE
:10023000D4020008D4020008E4020008E402000826
:10024000E4020008E4020008E4020008E4020008F6
:10025000E402000814480047FEE71EF0040F0CBF3C
:10026000EFF30880EFF309807146104A1047FEE76C
:10027000FEE71EF0040F0CBFEFF30880EFF30980D8
:1002800071460B4A1047FEE71EF0040F0CBFEFF358
:100290000880EFF309807146064A1047FEE7FEE743
:1002A000FEE7FEE770470000890100086F020008C2
:0A02B000870200089D020008FEE727
:1002BC00D80700080000002014000020D807000810
:1002CC00000000100000001014000020200000208E
:0802DC000000001000000010FA
:1002E40038B50E4A0E4B054618784FF47A73B3FBB3
:1002F400F0F31068B0FBF3F000F078F8044658B956
:100304000F2D09D8024629464FF0FF3000F03CF883
:10031400044B20461D6038BD0120FCE7100000207E
:100324000000002004000020074A08B5136843F0C9
:1003340010031360032000F015F80F20FFF7D0FF1F
:1003440000F008FA002008BD00200240034A044BD4
:1003540011681B780B441360704700BF180000201D
:10036400000000200749CA6822F4E0620302120474
:1003740003F4E063120C134343F0BF6343F400330C
:10038400CB60704700ED00E0164B30B5DC68C4F379
:100394000224C4F10703251D042B28BF0423062DC2
:1003A4004FF0FF3505FA03F38CBF033C002421EA28
:1003B4000303A34005FA04F422EA0402002843EAF2
:1003C4000203ACBF00F16040074A4FEA0313B8BF11
:1003D40000F00F00DBB2AABF00F56140135480F8AF
:1003E400003330BD00ED00E014ED00E00138B0F161
:1003F400807F0AD2064B074A5860F02182F8231006
:100404000020072298601A6070470120704700BFDF
:1004140010E000E000ED00E0044B1A6804280CBF73
:1004240042F0040222F004021A60704710E000E077
:100434002DE9F74FDFF880815D4C00234FF001096F
:100444000A6832FA03F502D103B0BDE8F08F09FA65
:1004540003FC1CEA020200F0A0804D6825F0100A9B
:100464004FEA430E03260AF1FF3706FA0EF6012F70
:100474006FEA060611D8876807EA060BCF6807FA01
:100484000EF747EA0B078760476827EA0C0CC5F3A9
:1004940000179F4047EA0C074760C76807EA060C45
:1004A4008F6807FA0EF747EA0C07BAF1020FC76024
:1004B40016D14FEAD30A00EB8A0A03F0070BDAF8E5
:1004C40020704FEA8B0B4FF00F0C0CFA0BFC27EA51
:1004D4000C0C0F6907FA0BF747EA0C07CAF82070EF
:1004E40007683E4005F0030707FA0EFE4EEA0606CB
:1004F4000660EE0051D5D8F8186046F00106C8F839
:100504001860D8F8186023F0030707F1804706F055
:10051400010607F58037019603F0030E019EBE68BD
:100524004FEA8E0E4FF00F0C0CFA0EFCB0F1904F08
:1005340026EA0C0C33D01F4EB04232D006F580664A
:10054400B04230D006F58066B0422ED006F5806603
:10055400B0420CBF0426052606FA0EF646EA0C063F
:10056400BE602668D74315F4803F0CBF3E40164357
:100574002660666815F4003F0CBF3E401643666073
:10058400A66815F4801F0CBF3E401643A660E668BB
:10059400AD0254BF3E401643E660013350E70026E7
:1005A400DAE70126D8E70226D6E70326D4E700BF18
:1005B4000004014000040048001002400AB18161B7
:1005C4007047816270470000014B1868704700BF94
:1005D4001000002008B500F015F8000001230360A6
:1005E400014B0B60704700BF0800002008B500F005
:1005F4001BF8024B024A9A6008BD00BF00ED00E000
:1006040000000008BFF34F8F0549064BCA6802F487
:10061400E0621343CB60BFF34F8F00BFFDE700BF21
:1006240000ED00E00400FA05024B4FF000629A600E
:10063400704700BF00ED00E0134A1449536803F00B
:100644000C03082B10B50AD0114B0B605368114AE8
:10065400C3F30313D25C0B68D3400B6010BD536823
:100664005068C00349BFD06A0B48094C00F00F0022
:10067400C3F3834348BF013003F1020348BFB4FB13
:10068400F0F04343E1E700BF0010024010000020F7
:1006940000127A00C607000800093D0008B5FFF7FC
:1006A40093FF4FF47A73B0FBF3F0FFF79FFEBDE8BE
:1006B40008400420FFF7B0BE08B5FFF735FEFFF78A
:1006C400EDFFBDE80840FFF7B7BF00000248012274
:1006D4004FF40041FFF772BF0010004802480022A7
:1006E4004FF40041FFF76ABF001000487FB50B4A82
:1006F4000B48536943F40013536101234FF4004240
:10070400CDE9012301A90322CDE90332FFF790FECD
:10071400FFF7E4FF07B05DF804FB00BF00100240E0
:100724000010004838B500F017F8FFF7DFFF002489
:1007340040F2EE25FFF7CAFF002C14BF28464FF401
:100744007A7000F025F8FFF7C9FFFA2000F020F8CE
:100754000134EFE7704700000A4B4FF47A721B68CC
:10076400B3FBF2F3013BB3F1807F09D2064A536035
:10077400064BF02183F823100023936007231360B2
:10078400704700BF1000002010E000E000ED00E022
:10079400024B18601A68002AFCD170471C00002024
:1007A400034B1A6812B11A68013A1A60704700BF05
:1007B4001C00002008B5FFF7C9FDBDE80840FFF79D
:1007C400EFBF000000000000000001020304060760
:0207D400080912
:1007D80001FFFFFF100000001400002000000000CF
:0407E80000127A0081
:040000050800018965
:00000001FF
