:020000040800F2
:1000000007B500F089F8294B1A6842F001021A601E
:100010001A6822F480321A605A6A42F001025A6267
:100020001A689107FCD55A6822F0F0025A605A68A3
:1000300022F4E06242F480625A605A6822F460520C
:100040005A605A6822F480325A605A6822F4741254
:1000500042F420125A60DA6A22F00F02DA621A6859
:1000600042F080721A601A689201FCD55A6822F038
:10007000030242F002025A605A6802F00C02082A97
:10008000FAD15A6942F4FC025A615A6902F4FC023C
:100090000192019A9A6942F480429A619B6903F441
:1000A00080430093009B03B05DF804FB0010024006
:1000B000FFF7A6BF08B5FFF7FBFF002008BD000053
:1000C000684620F007018D4601B50A4B0A4A0B49E4
:1000D0008B4207D30A4B0B4A0021934207D3FFF709
:1000E000E9FFFEE752F8040B43F8040BF0E743F88E
:1000F000041BF2E700000020A0010008000000201F
:100100000000002000000020024B1868C0F34000EF
:10011000704700BF0010024007B51F4A136843F044
:1001200001031360FFF7F0FF0128FBD1136823F0F0
:10013000F80343F0800313604FF0FF3301930199FC
:10014000164B0B400193019B5360536813F00C0F47
:10015000FBD113680193019B23F0847323F4803354
:100160000193019B1360106810F00070FBD11368BD
:1001700023F4802313604FF41F035060D062106398
:100180000193019B93609060536A43F080735362C4
:1001900003B05DF804FB00BF001002400CC0FFF884
:04000005080000C12E
:00000001FF
